:020000040000FA
:10000000C8020010690100007101000073010000C6
:100010007501000077010000790100000000000078
:100020000000000000000000000000007B01000054
:100030007D010000000000007F0100008101000040
:1000400083010000830100008301000083010000A0
:100050008301000083010000830100008301000090
:100060008301000083010000830100008301000080
:100070008301000083010000830100008301000070
:100080008301000083010000830100008301000060
:100090008301000083010000830100008301000050
:1000A0008301000083010000830100008301000040
:1000B0008301000083010000830100008301000030
:1000C00083010000830100008301000000F002F8BA
:1000D00000F03AF80AA090E8000C82448344AAF1A8
:1000E0000107DA4501D100F02FF8AFF2090EBAE8A6
:1000F0000F0013F0010F18BFFB1A43F0010318475C
:100100006006000080060000103A24BF78C878C15D
:10011000FAD8520724BF30C830C144BF04680C600D
:10012000704700000023002400250026103A28BF55
:1001300078C1FBD8520728BF30C148BF0B60704759
:100140001FB51FBD10B510BD00F0A6F81146FFF792
:10015000F7FF00F059FA00F0C4F803B4FFF7F2FF1C
:1001600003BC00F0F7FA000009488047094800473F
:10017000FEE7FEE7FEE7FEE7FEE7FEE7FEE7FEE757
:10018000FEE7FEE704480549034A054B70470000B7
:10019000A9040000CD000000C8000010C802001033
:1001A000C800001053EA020C00F069802DE9F04B02
:1001B0004FF00006002B1FBFB3FA83F503FA05F4D6
:1001C00024FA05F65E4012BF1643B2FA82F502FA2F
:1001D00005F4C5F120051EBF22FA05FC44EA0C0413
:1001E000203556EA044C4FEA144418BF641C4FF003
:1001F00000084FF00009904271EB030C39D300293D
:1002000019BFB1FA81F701FA07F6B0FA80F700FAE0
:1002100007F6C7F120071EBF20FA07FC46EA0C06C6
:100220002037B6FBF4FCA7EB0507103F07F01F0BC8
:10023000CBF120060CFA0BFB2CFA06F644BFB346B2
:100240000026202FA4BF5E464FF0000B5BEA060C91
:1002500008BF4FF0010B19EB0B09ABFB027C48EB1D
:100260000608C01B06FB02CC0BFB03CC71EB0C0198
:10027000C1E70B46024641464846BDE8F08B13B540
:100280004FF000004FF00001AFF30080BDE81C40CC
:100290007047704770477047754600F029F8AE46C2
:1002A00005006946534620F00700854618B020B582
:1002B000FFF768FFBDE820404FF000064FF0000751
:1002C0004FF000084FF0000B21F00701AC46ACE8FE
:1002D000C009ACE8C009ACE8C009ACE8C0098D466B
:1002E00070470446AFF300802046FFF736FF00005A
:1002F000004870476800001070470000FFFFFFFFD4
:100300002DE9F04782480068C0F3016003287CD1E2
:100310008048006810F0030006D0012833D002287E
:100320005FD003282ED100E000BF79480068C0F3F9
:10033000074000F101044FF002017748D0F888002F
:10034000C0F30E0000F10100A1FB0001734B4FF060
:10035000000CA0FB037901FB039100FB0C1122466A
:1003600063463846FFF71EFF05466D480068C0B279
:1003700000F1010422464FF000032846FFF712FF68
:10038000684908605DE062480068C0F3074000F11A
:1003900001044FF002016048D0F88800C0F30E005D
:1003A00000F10100A1FB00105F4A4FF0000CA1FB1F
:1003B000027900FB029001FB0C012246634638469D
:1003C000FFF7F0FE054656480068C0B200F1010490
:1003D00022464FF000032846FFF7E4FE514908602B
:1003E0002FE04B480068C0F3074000F101044FF0D4
:1003F00002014948D0F88800C0F30E0000F1010066
:10040000A1FB00124FF4004000E01BE04FF000039E
:10041000A1FB007902FB009001FB03012246384654
:10042000FFF7C0FE05463E480068C0B200F1010477
:1004300022464FF000032846FFF7B4FE3949086012
:1004400000BF2FE03348006810F0030006D00128F9
:1004500010D0022819D0032823D100E000BF304873
:100460000068C0B200F101002C49B1FBF0F02D4949
:10047000086016E02A480068C0B200F101002A496D
:10048000B1FBF0F0274908600BE025480068C0B2D6
:1004900000F101004FF40041B1FBF0F02149086088
:1004A00000BF00BFBDE8F0872020204908601A483F
:1004B000D0F8A00110F0200F05D000BF1B48006845
:1004C00010F0400FFAD0032015490860184812496F
:1004D000C1F8A8014FF00000164908604FF0010074
:1004E0000C4908604FF00000A1F1040108601248B7
:1004F000124908604FF480700749C1F8C8010846E6
:10050000006820F4704040F48040086070470000AC
:1005100088C00F400CC10F4000C00F4000093D00D3
:1005200004C10F4000000010001BB700A0C10F4025
:1005300055515155ACC10F40DE872804C4C00F404F
:1005400079480068012806D1784800687849086031
:1005500000207849486374480068022807D176482B
:100560000068734908604FF40000724948636E48A0
:100570000068032807D1714800686D4908604FF092
:1005800080706C49486368480068042807D16C484B
:100590000068674908604FF0C07066494863644866
:1005A000007800F00F00624908606648096850F85A
:1005B0002100654908600846006800010860084697
:1005C00000685C49486100206049086004E05F48B9
:1005D0000068401C5D4908605C480068B0F57A7F9F
:1005E000F5D34FF47F605349C861704700205749E5
:1005F000086004E055480068401C544908605348AE
:1006000000683228F6D370474A48006840F47F609B
:10061000484908600846006A40F0F060086281E0DE
:10062000FFF7E4FF40480068401C3F490860084667
:100630000068052807D1FFF7D9FF01203A49086073
:10064000FF20434908603B48406D10F0010F33D054
:100650003F480068FF2863D100203D4908603348C7
:100660000068401C31490860084600680F2857D9C7
:100670000020086030480068401C2F490860084688
:1006800000680F284CD9002008602C480068401CE6
:100690002A490860084600680F2841D900200860F0
:1006A00027480068401C26490860084600680F2853
:1006B00036D90020086033E01E48406D10F0010F6D
:1006C0002ED123480068FF282AD100202049086045
:1006D00016480068401E1549086008460068F8B9C9
:1006E0000F20086014480068401E1349086008463F
:1006F0000068A8B90F20086010480068401E0F4924
:1007000008600846006858B90F2008600C48006867
:10071000401E0B4908600846006808B90F200860B1
:10072000FFF70EFF7CE7000014000010040000102B
:100730001800001000C00920080000100C00001074
:100740001000001020000010600000106400001075
:100750001C00001001491820ABBEFEE72600020075
:100760008007000000000010680000000801000081
:10077000E80700006800001060020000240100008B
:10078000C0C62D00000000000000000000000000B6
:100790000000000000000000000000000000000059
:1007A0003F000000060000005B0000004F0000005A
:1007B000660000006D0000007D00000007000000E2
:1007C0007F0000006F000000770000007C00000048
:1007D000390000005E000000790000007100000098
:0807E000000000000000000011
:04000005000000CD2A
:00000001FF
